:020000040800F2
:10000000200500200101000869270008951D00084F
:1000100065270008710900087D270008000000001E
:100020000000000000000000000000007127000830
:1000300075090008000000006D27000875270008FA
:100040001B0100081B0100081B0100081B01000820
:100050001B0100081B0100081B0100081B01000810
:100060001B0100081B0100081B0100081B01000800
:100070001B0100081B0100081B0100081B010008F0
:100080001B0100081B0100081B0100081B010008E0
:100090001B0100081B0100081B0100081B010008D0
:1000A0001B0100081B0100081B0100081B010008C0
:1000B0001B0100081B0100081B0100081B010008B0
:1000C0001B0100081B0100081B0100081B010008A0
:1000D0001B0100081B0100081B0100081B01000890
:1000E0001B0100081B0100081B010008DFF80CD0F1
:1000F00000F0A4FB00480047812F000820050020E5
:100100000648804706480047FEE7FEE7FEE7FEE7B1
:10011000FEE7FEE7FEE7FEE7FEE7FEE779270008D9
:10012000ED00000830B504460020034600E05B1CEB
:10013000934203D2E05CCD5C401BF8D030BDF0B4FC
:1001400080EA0102D40F4200B2EB410F02D2024614
:10015000084611464A0042D0C30DDDB2C1F3C75272
:10016000AD1A202D35DAC1F3160141F4000204B1B5
:100170005242C5F1200602FA06F12A411044B3EBBF
:10018000D05F23D0C4B1012DA0EBC35009DCF0BC7B
:100190004FF0004202EAC352DBB200F5000000F06B
:1001A000ECB9400000F1807000EBC350A0F180700A
:1001B00040EAD170490009E0490841EAC071A0EB6A
:1001C000C35000F50000400800EBC350F0BC00F045
:1001D000CBB96142012202EB4101001BF6E7F0BC02
:1001E000704781F00041AAE780F00040A7E780EA6D
:1001F000010210B502F00043400022D04A001FD097
:10020000010E01EB1261C0F35600C2F3560240F436
:10021000000042F40002A0FB022000047F39140415
:1002200000D0401C50EA124001D44000491EC2B226
:100230000C0604EBD010401C4008802A02D003E0DA
:10024000002010BD20F00100002900DA0020184332
:1002500010BD30B480EA010202F0004530F00042E7
:1002600021F0004013D090B1C30DD40DC2F316019C
:10027000C0F31600E41A41F4000140F400027D349A
:10028000914201D3641C00E04900002C02DA30BC2A
:10029000002070474FF400000023914201D3891AD7
:1002A000034340084FEA4101F7D151B1914202D1D5
:1002B0004FF0004105E002D24FF0010101E06FF084
:1002C000010103EBC450284430BC00F04DB92DE9C6
:1002D000FE4F81EA030404F0004421F00041009441
:1002E0004FF0000B23F0004350EA01045ED052EAC5
:1002F00003045BD0C3F30A54C1F30A552C44A4F29F
:10030000F3340194A0FB0254C1F3130141F48011B2
:10031000C3F3130343F4801301FB024400FB034EB9
:10032000840A970A44EA815447EA8357A4FB076882
:1003300002958D0A05FB07854FEA932C04FB0C54AC
:100340002705029D4FEA065847EA1637B5EB080520
:100350006EEB070C870E920E47EA811742EA831272
:10036000A7FB0201B6EB0B0164EB00042B0D43EA83
:100370000C335E1844EB1C50DA465146E7FB020191
:10038000C5F313044FEA0B3343EA14534FEA043224
:10039000019C43EA0603A4F10C040294009CCDE9FD
:1003A00000B400F027F903B0BDE8F08F002001464B
:1003B000F9E72DE9F04D81EA030404F0004B21F048
:1003C000004514464FF0000A23F0004150EA0502B0
:1003D00020D054EA01021DD0C5F30A570246C5F3E6
:1003E0001303C1F31300C1F30A5640F4801543F41C
:1003F0008013A7EB0608101BD64608F2FD3873EBF6
:10040000050002D308F1010801E092185B41B8F140
:10041000000F03DA00200146BDE8F08D00204FF404
:100420008011064684460EE0171B73EB050705D3C3
:10043000121B63EB050306434CEA010C49084FEA23
:10044000300092185B4150EA0107EDD152EA0300F7
:1004500012D082EA040083EA0501084305D0101B8C
:10046000AB4106D20122002306E000224FF00043F8
:1004700002E06FF0010253101AEB06004CEB08513A
:1004800010EB0A0041EB0B01BDE8F04D00F0A3B802
:10049000C10F80EAE0700844CA079623002100F0EB
:1004A0006CB896230022114600F067B800F00042B5
:1004B00020F00040C10DC0F3160040F400007F2979
:1004C00001DA00207047962903DCC1F19601C8408B
:1004D00001E096398840002AF4D04042704700F08D
:1004E000004230F000400AD0C10D01F56071C0F348
:1004F000160042EA0151C20840071143704700202C
:100500000146704701F0004330B421F0004150EA49
:10051000010206D00A0DA2F56072C1F31301002A90
:1005200002DC30BC00207047440F44EAC104C10023
:10053000E01830BC00EBC25000F016B830B50B46E6
:10054000014600202022012409E021FA02F59D4203
:1005500005D303FA02F5491B04FA02F52844151ED7
:10056000A2F10102F1DC30BD0029A8BF7047401C98
:10057000490008BF20F00100704710B4B0FA80FCB9
:1005800000FA0CF050EA010404BF10BC704749B1F6
:10059000CCF1200421FA04F411FA0CF118BF012166
:1005A00021430843A3EB0C01CB1D4FEA00614FEA46
:1005B000102042BF002010BC704700EBC350104415
:1005C0000029A4BF10BC7047401C490008BF20F0A0
:1005D000010010BC704710B5141E73F1000408DA56
:1005E000401C41F1000192185B411A4301D120F0F7
:1005F000010010BD2DE9F04D92469B4611B1B1FAB4
:1006000081F202E0B0FA80F22032904600F02EF93A
:1006100004460F4640EA0A0041EA0B0153465A4697
:10062000084313D0114653EA010019D0C8F1400223
:10063000504600F02AF905460E46504659464246B5
:1006400000F014F9084305D0012004E020463946A3
:10065000BDE8F08D0020054346EAE0762C433743A1
:100660000A986305E40AA0EB08000022FD0A44EAA8
:1006700047540A3002D500200146E9E70105101968
:100680006941DDE9084500196941BDE8F04DA2E77F
:100690002DE9FE4F804681EA0300C00F0C46009012
:1006A00021F0004123F00045B8EB0200A94105D23A
:1006B0004046214690461C460B46024623F0004029
:1006C000104347D0270DC7F30A00C3F30A51029025
:1006D000401A019040286BDAC3F3130040F4801BEA
:1006E0000098924620B10023D2EB030A63EB0B0B78
:1006F00001985946C0F14002504600F0B7F806464E
:100700000D4650465946019A00F0CFF810EB08000C
:100710006141002487EA115284EAE7731A4340D00A
:10072000009A62B3019A012A4FEA075215DC001BB6
:1007300061EB02014FF0004202EA0752CDE90042AC
:10074000001C41F5801132462B46FFF753FF03B0E2
:10075000BDE8F08F40462146F9E7001B61EB02013E
:10076000001C41F5801300185B412018A2F500170A
:1007700047EB030140EAD570B6196D4111E06D08F1
:100780004FEA360645EAC0754FEA0752001B61EB97
:100790000201001C41F5801149084FEA30000019A0
:1007A000514132462B4603B0BDE8F04FFFF713BF6F
:1007B0000098012240000023D0EB020263EBE073BB
:1007C000009821464FEAE074B8EB000061EB0401A9
:1007D000E9E783F000435BE781F0004158E770B53B
:1007E00021F0004303430CD0C1F30A550024D5EB9C
:1007F000040564EB0403D617AD1AB34102DB0020F5
:10080000014670BD201841EB025170BD30B5041E89
:1008100071F1000404DB4FF00044404264EB01013D
:10082000141E73F1000405DB1C464FF000435242D6
:1008300063EB04038B4208BF824230BD1CB50948FC
:100840000090094801900546009C06E0E06840F0F1
:10085000010394E8070098471034AC42F6D3FFF741
:1008600049FC000098570008B8570008202A04DB0C
:10087000203A00FA02F1002070479140C2F12003B3
:1008800020FA03F3194390407047202A04DB203AF2
:1008900021FA02F00021704721FA02F3D040C2F1A0
:1008A00020029140084319467047202A06DBCB17E7
:1008B000203A41FA02F043EAE07306E041FA02F31B
:1008C000D040C2F1200291400843194670472DE9FB
:1008D000F04D00231A461B1A8A4103DB0020014613
:1008E000BDE8F08DC1F30A52C1F3130141F4801544
:1008F0004FF0000BD10702D100186D41521E0027A6
:10090000044640F2FF11384601EB620A3E4680463B
:10091000024600204FF48011FFF7B7FFC219714162
:10092000BB1846EB0100B4EB030C75EB000C04D3D1
:10093000E41A65EB000517460E46241908F101007C
:100940006D4180463428E3DDF91946EB0600091BAA
:10095000A84103D24FF0FF32134601E000221346B4
:100960001BEB070046EB0A51BDE8F04DFFF733BE25
:10097000FEE7000070470000EFF3108072B600BF82
:10098000FEE70000B0B5044600F018F9054640F255
:100990000800C2F200000078611C18BF044400BFC8
:1009A00000F00CF9401BA042FAD3B0BD2DE9F04F86
:1009B00082B00E68002E00F0FD8041F20042C4F2C9
:1009C0000102042340F2004E904208BF03234FF679
:1009D000FF7CC4F2010E009300240123C1F2100C2D
:1009E0004FF0000A4FF0000944E000BF012704F077
:1009F0000C030F229A402BEA020207FA03F34FEA94
:100A00009A051A4346F825204E6840F20C45F2023A
:100A1000DEF8082054BF22EA080242EA0802C4F2C3
:100A20000105CEF808202A68B30254BF22EA080262
:100A300042EA08022A60B303DEF8042054BF22EA27
:100A4000080242EA0802F303CEF80420DEF8002090
:100A50004FF0010354BF22EA080242EA0802CEF82E
:100A600000200E680AF1010A36FA0AF204F10404C1
:100A700000F0A08003FA0AFB16EA0B08F1D04E68DA
:100A8000664511DC122E55D8DFE806F0340A4448DA
:100A9000545454545454545454545454544C500076
:100AA000D1F80C9046E000BF4FF6FF72C1F2210270
:100AB00096420FDC0022C1F2110296421AD00022A7
:100AC000C1F21202964215D00022C1F221029642D2
:100AD00010D02FE00022C1F2220296420AD000225A
:100AE000C1F23102964205D00022C1F23202964292
:100AF00020D100BF8A684AB1012A14BFC0F814B0DF
:100B0000C0F810B04FF0080914E000BF4FF004091E
:100B100010E000BFCA6802F108090BE04FF00009BD
:100B200008E000BFCA6802F1040903E0CA6802F1E4
:100B30000C0900BF22460646B8F5807F24BF203A44
:100B4000043637680F25954027EA050509FA02F2B1
:100B50002A433260CA79D2067FF583AF41F2180387
:100B6000C4F202031A68AEF57E7642F001021A6002
:100B70001A6802F001020192019A2AF0030256F863
:100B800002B040F60002C4F20102904210D040F6DA
:100B90000042C4F2010290423FF428AF41F2000249
:100BA000C4F20102009F904208BF02271FE700BF66
:100BB00000271CE702B0BDE8F08F000040F21810DB
:100BC000C2F2000000687047002804BF012070478F
:100BD000F0B581B0044690F83D0028B9002084F8B3
:100BE0003C00204600F0F4FA242084F83D00206800
:100BF000016821F001010160016841F400410160D8
:100C0000016821F40041016000F09AFC636848F239
:100C1000A16CC0F2010C40F60011C0F23D01634529
:100C20003CBF48F28041C0F21E01884202D201203E
:100C300001B0F0BD4DF68361C4F21B31A0FB01127F
:100C40002168970CD1F804E04FF496762EF03F051A
:100C500045EA92454D60774348F638160D6AC0F272
:100C60004106A7FB067625F03F07634538BF960C83
:100C7000721C3A430A62CA6948F2A0664CF6FF77D2
:100C8000C0F20106B34222EA07020BD801385B002A
:100C9000B0FBF3F001306FF31F30042898BF04203D
:100CA0001BE000BFA768013857B119277B43B0FB91
:100CB000F3F001306FF31F3070B100F5804007E0B2
:100CC00003EB4303B0FBF3F001306FF31F3018B1B7
:100CD00000F5004001E000BF01201043C861086832
:100CE000D4E9072320F0C000104318430860886847
:100CF00048F2FF3204F10C0790438CCF18431043A5
:100D0000A6698860C86820F0FF0038433043C86097
:100D1000086840F00100086000202021206484F869
:100D20003D10206384F83E0001B0F0BD2DE9F04F86
:100D300085B004460020994616460F460490FFF7FA
:100D40003DFF94F83D10202927D10546206800BFBB
:100D5000816989071CD5FFF731FF411B20681A29DB
:100D6000F6D381698907F3D500202021206384F818
:100D70003D1084F83E00206C04F13C0A40F0200055
:100D80002064022000218AF8001005B0BDE8F08F31
:100D9000A2461AF83C1F012904D1022005B0BDE883
:100DA000F08F00BF01228AF800200368DDE90F18E8
:100DB0000E9ADB0703D1036843F001030360036865
:100DC00023F400630360222084F83D00402084F86F
:100DD0003E000020206462626185608D3946208576
:100DE0000020CFF6FF70E062204632464B46CDE948
:100DF000008500F0D1FF18B1012005B0BDE8F08FEB
:100E0000208D022810D0012824D0002838D10020BD
:100E100003902068416903918169039103990168F6
:100E200041F40071016037E02068016841F400611D
:100E30000160EFF3108072B60020039020684169D2
:100E40000391816903910399016821F48061016034
:100E500062B621E02068016821F480610160EFF34F
:100E6000108072B600200390206841690391816967
:100E700003910399016841F40071016062B60BE0CF
:100E80002068016841F4806101600021039141699B
:100E90000391806903900398208D002800F0CA8098
:100EA000042740F210094BF2895BC0F20107C2F23D
:100EB0000009C1F2F84B232617E000BF2046414647
:100EC0002A4601F007FA002896D12068616A006975
:100ED0000870606A218D01306062481E2085618D36
:100EE00001396185010400F0A58080B2032865D82E
:100EF000022800F07F800128E0D0204639460022F9
:100F00004346009501F094F800287FF475AF2068FF
:100F1000016821F480610160EFF3108072B62068EF
:100F2000616A00690870606A218D01300139606270
:100F30002185618D01396185D9F80010C908A1FBAF
:100F40000B12110A71430491049901390491049917
:100F5000002900F07B8021684A6952071DD404995A
:100F6000013904910499002970D021684A69520717
:100F700013D40499013904910499002966D0216899
:100F80004A69520709D40499013904910499002946
:100F90005CD021684A695207D6D50A6842F40072CB
:100FA0000A6009690170606A218D01306062481E23
:100FB0002085608D0138608562B686E7204641460F
:100FC0002A4601F087F900287FF416AF2068616A8D
:100FD00000690870606A2268411C208D61620138D6
:100FE0002085638D013B638553695B077FF57AAF8D
:100FF00010696DE72046394600224346009501F00E
:1010000017F800287FF4F8AEEFF3108072B620686E
:10101000616A026842F40072026000690870606AE6
:10102000218D01306062481E2085608D0138608509
:1010300062B64AE7202084F83D00002084F83E0094
:1010400000218AF8001005B0BDE8F08F00202021B3
:10105000206384F83D1084F83E00206C40F02000AE
:10106000206462B6012000218AF8001005B0BDE8B6
:10107000F08F00002DE9F04383B0994616460F46E5
:101080000446FFF79BFD94F83D10202924D1054626
:10109000206800BF816989071AD5FFF78FFD411BC2
:1010A00020681A29F6D381698907F3D50020202109
:1010B000206384F83D1084F83E00216C41F020014B
:1010C000216484F83C00022003B0BDE8F08300BF37
:1010D00094F83C10012903D1022003B0BDE8F0834D
:1010E000012284F83C200368DDE90B180A9ADB072B
:1010F00003D1036843F001030360036823F4006332
:101100000360212084F83D00402084F83E00002048
:10111000206462626185608D394620850020CFF6AB
:10112000FF70E062204632464B46CDE9008500F074
:10113000BDFE18B1012003B0BDE8F083208D98B941
:10114000204641462A4600F015FF88B3206C04284B
:10115000F0D12068016841F400710160012003B002
:10116000BDE8F0830004EBD0204641462A4601F05A
:10117000F9F80028EAD1616A2268084610F8013BB4
:101180001361238D6062581E2085678D013F67853E
:1011900057697F07E6D50704E4D048781061881CBA
:1011A0006062981E2085618D01396185DAE700BF94
:1011B0002068016841F400710160202084F83D003E
:1011C000002084F83E0084F83C0003B0BDE8F083C2
:1011D00010B586B045F200410068C4F2000100225B
:1011E0008842049202D006B010BD00BF41F218043C
:1011F000C4F20204206840F008002060206800F07B
:10120000080001900198C020029012200390032052
:10121000059001F5384002A9FFF7C8FB606840F46B
:1012200000106060606800F400100190019806B042
:1012300010BD000040F2080040F21811C2F2000098
:10124000C2F2000100780A6810440860704700008C
:1012500080B542F20000C4F20200016841F01001C2
:101260000160032000F07AF80F2000F005F800F08C
:1012700027F8002080BD000070B540F20806C2F2D9
:10128000000640F210013278C2F200014FF47A7386
:101290000968B3FBF2F20446B1FBF2F1084600F034
:1012A00077FB0F2C4FF0010508D838B94FF0FF300D
:1012B00021460022002500F025F87460284670BD04
:1012C00082B041F21800C4F202000168022241F02B
:1012D00001010160016801F001010191019941687A
:1012E00041F080514160406800F0805000900098CB
:1012F0000420C4F20100016862F31A61016002B0C7
:101300007047000010B54EF60C5CCEF2000CDCF815
:101310000030C3F3022E8EF00704042C28BF0424EF
:10132000BEF103034FF0FF3E0EFA04F438BF002372
:10133000A14399400EFA03F39A43114300F00F02C0
:1013400000F160430901043A03F564436244002854
:1013500048BF02F10C03197010BD00004EF60C518D
:10136000CEF200010A684FF6FF031A4060F30A222A
:1013700042F0806040F0FD7008607047002804BFB4
:10138000012070472DE9F04381B042F20008C4F219
:1013900002080446D8F800000D4600F00700884215
:1013A0000CD2D8F8000020F007002843C8F800004D
:1013B000D8F8000000F00700A8426CD1206841F284
:1013C00004098107C4F2020917D5410705D5D9F8E8
:1013D000001041F4E061C9F80010010705D5D9F803
:1013E000001041F46051C9F80010D9F80010A2684B
:1013F00021F0F0011143C9F80010C00742D1D8F81C
:10140000000000F00700A8420CD9D8F8000020F036
:1014100007002843C8F80000D8F8000000F00700D3
:10142000A84238D12068410707D5D9F80010E268F2
:1014300021F4E0611143C9F80010000708D5D9F87C
:101440000000216920F4605040EAC100C9F80000A2
:10145000D9F8002002F00C00082841F20020C0F268
:101460007A0051D144F64033C2F38341C0F6000301
:10147000595CD2033CD440F60010C0F23D00484312
:1014800042E000BF606802280AD001282AD159F83A
:10149000041C890308D4012001B0BDE8F08300BF1B
:1014A00059F8041C8901F6D5D9F8001021F0030180
:1014B0000843C9F80000FFF781FB064641F2883770
:1014C000D9F80000616800F00C00B0EB810F96D0F5
:1014D000FFF774FB801BB842F2D9032001B0BDE8CE
:1014E000F08300BF59F8041C8907D4D5DCE700BF9E
:1014F000D9F8002044F63E33C2F34042C0F6000360
:101500009A5C4843B0FBF2F0D9F8001044F626325A
:10151000C1F30311C0F60002515C40F2100220FA40
:1015200001F140F20C00C2F200000068C2F20002B9
:101530001160FFF7A1FE002001B0BDE8F0830000BC
:1015400040F2100041F20401C2F20000C4F20201B4
:101550000068096844F63632C1F30221C0F6000281
:10156000515CC8407047000040F2100041F2040195
:10157000C2F20000C4F202010068096844F6363283
:10158000C1F3C221C0F60002515CC84070470000A0
:10159000002804BF012070472DE9F04182B00446C5
:1015A000007841F20006C007C4F202060CD0706851
:1015B00000F00C00042840F081803068800303D5DF
:1015C0006068002800F04E81207880071BD5706885
:1015D00010F00C0F09D0706800F00C00082840F0E3
:1015E0008B807068C00300F187803068800703D566
:1015F0002069012840F036813068616920F0F800E8
:1016000040EAC10030602078000713D420784007FA
:101610002CD4E569002D00F02081706800F00C00EA
:10162000082840F0AF80012D40F00C81012002B06D
:10163000BDE8F081A069002800F08C800020C4F291
:1016400042200121C0F88014FFF7B8FA054600BF18
:10165000706A800700F1BA80FFF7B0FA401B0228D9
:10166000F6D9032002B0BDE8F08100BFF0695FEA5F
:10167000C00808D4F06940F08050F061F06900F0D3
:1016800080500090009847F20007C4F200073868C5
:10169000C0054DD4386840F480703860FFF78EFA8A
:1016A000054600BF3868C00542D4FFF787FA401BE3
:1016B0006428F7D9032002B0BDE8F081706800F01B
:1016C0000C00082803D17068C0033FF576AF60684E
:1016D000002800F00981B0F5A02F00F01D81B0F5C1
:1016E000803F00F01D81306820F480303060306829
:1016F00020F4802017E100BF2069002840F200009C
:10170000C4F2422000F08C8001210160FFF756FAFC
:10171000054600BF306880073FF56EAFFFF74EFA11
:10172000401B0228F6D9032002B0BDE8F08100BFBB
:10173000E068002800F09A80052800F0B1800128B8
:1017400000F0B280306A20F001003062306A20F090
:101750000400ACE00020C4F242200021C0F8801454
:10176000FFF72CFA054600BF706A80077FF54EAF81
:10177000FFF724FA401B0228F6D9032002B0BDE887
:10178000F08100BF0027C4F2422700203866FFF72F
:1017900015FA022D05460DD13068800140F1D68042
:1017A000FFF70CFA401B02284FF00300F4D902B0F7
:1017B000BDE8F081306880014FD5FFF7FFF9401B8D
:1017C00002284FF00300F5D9F1E700BF40F2100006
:1017D000C2F20000006844F6D351C1F26201A0FBDE
:1017E0000101480A019000BF00BF0198411E002876
:1017F00001913FF40BAF00BF0198411E00280191F9
:101800003FF404AF00BF0198411E002801913FF44E
:10181000FDAE00BF0198411E00280191E4D1F5E61C
:1018200000210160FFF7CAF9054600BF3068800754
:101830007FF5E9AEFFF7C2F9401B02284FF0030025
:10184000F4D9B4E77068216A00F480328A4209D181
:10185000616A00F47010884204D1002002B0BDE833
:10186000F08100BF012002B0BDE8F081306A20F0B5
:1018700001003062306A20F004003062FFF79EF908
:10188000054641F2883700BF306A800722D5FFF74E
:1018900095F9401BB8424FF00300F5D987E700BF28
:1018A000306A40F004003062306A40F0010030627B
:1018B000FFF784F9054641F2883700BF306A800798
:1018C00008D4FFF77BF9401BB842F7D9032002B0D8
:1018D000BDE8F081B8F1000F3FF59BAEF06920F054
:1018E0008050F06195E600BF306820F480303060B1
:1018F000306820F480203060FFF760F9054600BFB3
:10190000306880037FF560AEFFF758F9401B64280C
:101910004FF00300F4D94AE7306840F4802030608B
:10192000306840F480303060FFF748F9054600BF6A
:10193000306880033FF548AEFFF740F9401B64284C
:10194000F6D9032002B0BDE8F08100BF206AB0F5EF
:10195000803F05D17168A26821F4003111437160A4
:101960007168626A21F474111143084370600120A8
:101970003866FFF723F90446306880013FF56DAF04
:10198000FFF71CF9001B02284FF00300F4D90EE703
:10199000411E0020B0EB116F1CBF012070474EF2BA
:1019A0001002CEF2000251604EF62351CEF2000139
:1019B000F0230B700721906011607047002804BF6E
:1019C0000120704710B5044690F8410028B9002066
:1019D00084F84000204600F063F8242084F8410099
:1019E0002068D4E90212C36823F40053C36003697A
:1019F00023F440531A430261D4E904231143C2681B
:101A0000194341F20C639A431143C1604169A269D1
:101A100021F44071114343F60002C4F201029042E6
:101A2000416103D0FFF78CFD02E000BFFFF79CFD92
:101A3000D4E90023192148439900B0FBF1F048F2A2
:101A40001F5CC5F2EB1CA0FB0C314FF69C734909DF
:101A5000C0F6FF7301FB0300322303EB0010A0FB71
:101A60000C03F02000EA531000EB0110C3F3431104
:101A7000084490601069202120F490401061506962
:101A800020F02A005061D06840F40050D06000205F
:101A9000606484F8411084F84210606310BD000057
:101AA00070B586B040F60004C4F20104006804F585
:101AB000405100268842049602D006B070BD00BF97
:101AC00041F21800C4F20200016802AD41F4804105
:101AD0000160016801F4804101910199016841F0C0
:101AE000040101600068294600F00400019001989B
:101AF0004FF40070029002200390032005902046CE
:101B0000FEF754FF4FF48060CDE9020620462946D7
:101B10000496FEF74BFF06B070BD00002DE9F043C0
:101B200081B0044690F84100202840F0B1808846FA
:101B300000294FF0010000F0D6801646002A00F080
:101B4000D2800020606421201D4684F84100FFF708
:101B500035F8A684E684A1680646B1F5805F03D116
:101B60002069002800F0988047464FF00008E18C7B
:101B70002068002900F0968005F101090BE000BF04
:101B800047B317F8011B4160E18C0139E184E18C16
:101B9000002900F0878001680906F1D4B9F1000F2F
:101BA0000AD0EDB1FFF70AF8801BA84218D82068C8
:101BB00001680906F6D5E3E701680906E0D4016883
:101BC00009065CBF01685FEA0161D9D401680906B2
:101BD000F2D5D5E738F8021B00276FF35F21D2E773
:101BE000206850E8030F216820F4D07041E8030218
:101BF000BAB3206850E8030F216820F4D07041E8A0
:101C0000030272B3206850E8030F216820F4D070FB
:101C100041E803022AB3206850E8030F216820F44A
:101C2000D07041E80302002ADAD11AE0206850E8B7
:101C3000050F216820F0010041E80502DAB12068B3
:101C400050E8050F216820F0010041E8050292B13B
:101C5000206850E8050F216820F0010041E80502E6
:101C60004AB1206850E8050F216820F0010041E8E2
:101C70000502002ADAD1202084F8410084F84200CD
:101C8000002084F84000032001B0BDE8F08300BFCD
:101C9000022001B0BDE8F0830027E18C2068002914
:101CA0007FF46AAF0168490619D4FDB1691C0DD1F2
:101CB0000168490613D4016849065CBF01685FEA00
:101CC00041610CD401684906F2D508E0FEF776FFC1
:101CD000801BA8420AD8206800684006F6D520205C
:101CE00084F84100002001B0BDE8F083206850E88E
:101CF000030F216820F4D07041E80302002A3ED08F
:101D0000206850E8030F216820F4D07041E80302F6
:101D1000AAB3206850E8030F216820F4D07041E88E
:101D2000030262B3206850E8030F216820F4D070EA
:101D300041E80302002AD9D121E000BF206850E821
:101D4000050F216820F0010041E80502002A3FF458
:101D500092AF206850E8050F216820F0010041E8AB
:101D60000502002A3FF487AF206850E8050F21687C
:101D700020F0010041E80502002A3FF47CAF206812
:101D800050E8050F216820F0010041E80502002A13
:101D9000D4D170E7FEE700002DE9F04782B0044699
:101DA00000689A460B9D0A9E0368914643F4806240
:101DB000026002680F4642F48071016020464FF0D5
:101DC000011100223346009500F032F950B120682D
:101DD0000068C00544BF4FF400702064032002B0C7
:101DE000BDE8F08740F202082068C0F2010807F061
:101DF000FE0707612046414632462B4600F0FEF9B9
:101E000020B1012002B0BDE8F08700BF00200190A2
:101E100020682A4641690191806931460190019804
:101E2000204600F09FFAB0B92068BAF1010F09D03E
:101E30004FEA19210161204631462A4600F092FA04
:101E400048B920685FFA89F10161204631462A4687
:101E500000F088FA60B1206C0428D2D120680168B3
:101E600041F400710160012002B0BDE8F08700BFBD
:101E7000206800220168334641F4807101602046E9
:101E80004FF00111009500F0D3F800289FD147F0E2
:101E9000010C27682046414632462B46C7F810C041
:101EA00002B0BDE8F04700F0A9B900002DE9F04309
:101EB00083B0044600680D4601680A9F0B9E41F4FA
:101EC000807199469046016020464FF00111002232
:101ED0003B46009600F0ACF850B120680068C005A1
:101EE00044BF4FF400702064032003B0BDE8F083CA
:101EF000206805F0FE0101610221C0F201012046C7
:101F00003A46334600F07AF920B1012003B0BDE82B
:101F1000F08300BF002002902068324641690291A0
:101F20008069394602900298204600F01BFA58B1A9
:101F3000206C0428E9D12068016841F40071016037
:101F4000012003B0BDE8F0832068B9F1010F0AD089
:101F50004FEA1821016120463946324600F002FA64
:101F60000028E5D120685FFA88F10161002003B004
:101F7000BDE8F08370B50368044653F8140F4007BA
:101F800011D40E46481C29D086BB00BF18684005F6
:101F900027D4FEF713FE236853F8140F400737D5F4
:101FA00018684007F2D5002070BD00BF18684007D0
:101FB000F9D41868400514D418684007F3D4186899
:101FC00040050ED418684007EDD41868400508D4C1
:101FD000186840074FF0000048BF70BD1868400502
:101FE000E4D56FF480601860042012E0154603E029
:101FF00053F8140F4007D6D418684005F1D4FEF703
:10200000DDFD401B2368B042F2D958694007EFD488
:10201000202000212022216384F83D2084F83E10F6
:10202000226C10432064012084F83C1070BD000035
:102030002DE9F041054600681E46144601F47F0272
:1020400001338FB242D0DDF81880B2F5803F40F006
:10205000878040693840C01BB0FA80F04009A04238
:1020600040F0C8804EB924E040693840C01BB0FA47
:1020700080F04009A04240F0BD80FEF79FFDA0EB3C
:1020800008012868B142EFD941693940C91BB1FA4A
:1020900081F14909A142E7D19BE000BF4069384086
:1020A000C01BB0FA80F04009A0424FF0000040F0A1
:1020B000A280FEF783FD286841693940C91BB1FA47
:1020C00081F14909A142E9D183E000BFB2F5803F27
:1020D00024D100BF41693940C91BB1FA81F14909D6
:1020E000A14240F0878041693940C91BB1FA81F1B2
:1020F0004909A14240F07E8041693940C91BB1FACB
:1021000081F14909A14275D141693940C91BB1FA30
:1021100081F14909A142DDD06CE000BF81693940FD
:10212000C91BB1FA81F14909A14263D181693940E2
:10213000C91BB1FA81F14909A1425BD181693940DA
:10214000C91BB1FA81F14909A14253D181693940D2
:10215000C91BB1FA81F14909A142DFD04AE000BFB1
:1021600080693840C01BB0FA80F04009A04241D1DC
:1021700046B923E080693840C01BB0FA80F04009BE
:10218000A04237D1FEF71AFDA0EB08012868B14242
:10219000F0D981693940C91BB1FA81F14909A142DD
:1021A000E8D116E080693840C01BB0FA80F04009E1
:1021B000A0424FF0000018BFBDE8F081FEF7FEFC22
:1021C000286881693940C91BB1FA81F14909A142E6
:1021D000E8D100202021286385F83D1085F83E00D5
:1021E000296C41F02001296485F83C000120BDE8FC
:1021F000F08100BF0020BDE8F0810000F0B581B0A3
:10220000044600681D4643698FB203EA0701B942DC
:1022100002D1002001B0F0BD4169164601323FD025
:1022200049053FD4CEB100BFFEF7C8FC411B206872
:10223000B14203D941693940B94215D141693940A8
:10224000B942E6D041694905EED52BE041693940F4
:10225000B942DED04169490524D4FEF7AFFC2068BD
:1022600041693940B942F1D0202023E04169394029
:10227000B942CED04169490514D441693940B942C7
:10228000C7D0416949050DD441693940B942C0D030
:102290004169490506D441693940B942B9D041691B
:1022A0004905E3D5016841F4007101606FF4806174
:1022B0004161042000212022216384F83D2084F81C
:1022C0003E10226C1043206484F83C10012001B0C1
:1022D000F0BD000070B504460068154650F8143F84
:1022E0005A063DD40E4629B926E000BF50F8141F07
:1022F000490635D40168C90621D4FEF75FFC411BAD
:102300002068B142F2D941694906EFD4002020216A
:10231000206384F83D1084F83E00206C40F02000DB
:1023200018E000BFFEF74AFC206850F8141F490669
:10233000ECD50168490613D40168C906F2D56FF0DF
:102340001001016000202021206384F83D1084F8F2
:102350003E00206C2064002084F83C00012070BD09
:10236000002070BD70B50368044653F8140F0006D2
:1023700011D40E46481C29D086BB00BF1868400502
:1023800027D4FEF71BFC236853F8140F000637D53B
:1023900018680006F2D5002070BD00BF186800065E
:1023A000F9D41868400514D418680006F3D41868E6
:1023B00040050ED418680006EDD41868400508D40E
:1023C000186800064FF0000048BF70BD186840054F
:1023D000E4D56FF480601860042012E0154603E035
:1023E00053F8140F0006D6D418684005F1D4FEF750
:1023F000E5FB401B2368B042F2D958690006EFD4D0
:10240000202000212022216384F83D2084F83E1002
:10241000226C10432064012084F83C1070BD000041
:102420002DE9F04F8FB014460E4683460DF1190783
:102430000DF11A050DF136000CA908AA07ABCDE97C
:10244000005700F0F9FA28B14FF0FF300FB0BDE8A7
:10245000F08F00BFBDF81A00CDE90464C00521D596
:1024600008AFA1CF0B9CFEF713F84FF04251FDF7D8
:10247000BEFE06462846FEF70BF84FF04251FDF728
:10248000B6FE81463846FEF703F84FF04251FDF79D
:10249000AEFE82462046FDF7FBFF4FF04251FDF7AE
:1024A000A6FE054648464FF04041FDF7A0FE074610
:1024B000039030463146FDF742FE51468046FDF717
:1024C00096FE044638462946FDF791FE2146FDF763
:1024D00036FEFEF704F801F05BFF4AF26663C4F2D1
:1024E0004C034FF06632FDF7F2FEFEF70BF8CBF827
:1024F000000050465146FDF722FE834640464946BD
:10250000FDF775FE044658462946FDF770FE214644
:10251000FDF715FEFDF7E3FF044637460E4650462D
:102520005946FDF764FEA846054603984946FDF75F
:102530005EFE2946FDF755FE4FF07E51FDF7FFFD8B
:10254000FDF7CDFF02460B462046314602F068F902
:102550004AF2666BC4F24C0B4FF066325B46FDF7F5
:10256000B6FEFDF7CFFF0499086038464146FDF7F7
:102570003EFE044648465146FDF739FE2146FDF72A
:10258000DEFD0146FDF7DBFDFDF7A9FF06460C4623
:1025900048464946FDF72BFE054638463946FDF7C5
:1025A00026FE2946FDF7CBFD054650465146FDF770
:1025B0001EFE01462846FDF714FE054640464146EC
:1025C000FDF715FE01462846FDF70BFEFDF787FFD8
:1025D00002460B463046214602F022F94FF06632A1
:1025E0005B46FDF774FEFDF78DFF0599086000203E
:1025F0000FB0BDE8F08F000080B582B001A800F0F8
:102600000BFE18B14FF0FF3002B080BD782001F012
:1026100099FC18B16FF0010002B080BD782000F085
:1026200079FD18B16FF0020002B080BD142001F0F6
:1026300009FC18B16FF0030002B080BD00F0F0F9A2
:1026400020B16FF0040002B080BD00BF40F2140062
:10265000C2F2000000F026FC00F00AFB20B16FF08F
:10266000050002B080BD00BF40F2731000F088F892
:1026700020B16FF0060002B080BD00BF142000F052
:10268000BFFA18B16FF0070002B080BD012001F061
:10269000DFFA002818BF6FF0090002B080BD00000B
:1026A00083B041F21800C4F20200016841F0200139
:1026B0000160016801F0200102910299016841F076
:1026C00004010160016801F00401019101990168B0
:1026D00041F008010160006800F0080000900098D7
:1026E00003B0704780B540F2680045F20041C2F285
:1026F0000000C4F2000141F6802200234FF4804C18
:10270000C0F2060280E80E00C0E9033CC0E90533D0
:10271000C0E90733FEF758FA002808BF80BDBDE8BE
:102720008040FEF729B9000080B540F2BC0043F6B6
:102730000001C2F20000C4F2010100234FF00C0CB2
:102740004FF4E13280E80E00C0E90333C0E905C36D
:10275000C361FFF733F9002808BF80BDBDE88040A2
:10276000FEF70AB9FEE70000FEE700007047000030
:1027700070470000FEF75EBD70470000FEE70000F6
:10278000F0B587B004464CF60220C0F6E3100DF118
:102790000605CDF80600682004212A4601F068FCF1
:1027A00014F040014FF0A3006FF03F018DF80600D8
:1027B00008BF6FF05C016FF037026FF03D0308BF98
:1027C0006FF05C0208BF6FF05C038DF8071014F423
:1027D000C0716FF03B018DF808208DF8093008BFFB
:1027E0006FF05C016FF033026FF0390308BF6FF0D8
:1027F0005C0208BF6FF05C038DF80A104AF2A33147
:102800008DF80B20ADF80D108DF80F0040F6A720C5
:102810000A212A468DF80C3001F02AFC2020A60758
:1028200008BF6FF027008DF8060040F6B6200121A2
:102830002A4601F01DFCA0060CD4C720069048F6DD
:10284000B000CCF2C35005904AF6B820CAF6AA20D0
:102850000BE000BF5D20069049F6B400C3F20D50B6
:1028600005904AF6B820C8F6B350049004AA4FF475
:102870009760092101F0FCFB14F4C07F25D06FF0B4
:102880004D016FF0740214F4807008BF6FF04F01B7
:1028900008BF6FF07F026FF049036FF0640508BF57
:1028A0006FF04B03002808BF6FF06F058DF806101E
:1028B0008DF807200DF1060240F6A22004218DF8C4
:1028C00008308DF8095001F0D3FBE00708D1D8207B
:1028D0008DF806000DF106024FF40B60012150E067
:1028E000F8208DF806000DF106024FF40B6001216F
:1028F00001F0BEFB0720FA2100F02EFA3F208DF8F0
:10290000100004AA4FF4A470012101F0B1FB0020D3
:102910008DF8100004AA40F24F10012101F0A8FB2D
:102920004FF4A050ADF8100004AA4FF4EF7002214C
:1029300001F09EFB4FF4C840ADF8100004AA4FF41C
:10294000ED70022101F094FB48F60060C9F2F90035
:10295000049004AA4FF4AE70042101F089FB4FF4F7
:102960000060ADF8100004AA4FF4AD70022101F030
:102970007FFB4FF40070ADF8100004AA4FF4AC7068
:10298000022101F075FB6FF02600002E58BF6FF09A
:1029900027008DF806000DF1060240F23D7001217E
:1029A00001F066FB600752BF4FF08B304CF2C02045
:1029B000CCF2C460049004AA40F69820042101F0EF
:1029C00057FB00F0A1FFE00652BF4FF0A33042F6E4
:1029D0002000C3F63000049004AA40F69E20042193
:1029E00001F046FB00F090FF40F2500744F0080071
:1029F000C2F200076506B88000F086FF062000EAF4
:102A0000E57114F4C07F18BF063114F0140F18BF1D
:102A10001031002E18BF04310020397007B0F0BD0E
:102A200044F65031C0F6000140F6F6304FF48062B3
:102A3000C82300F0BBBC00002DE9F04F89B0174659
:102A4000DDE912920E46002140F25008A9F800106C
:102A5000C2F2000898F800100DF1040A83460846F7
:102A6000514600F0D5FE28B14FF0FF3009B0BDE867
:102A7000F08F00BFB8F804C01CF0140F4ED09DF8C2
:102A800005209DF80410BDF8065012049DF8094079
:102A900042EA01612ABA9DF8083041EA1242BDF8C3
:102AA0000A503A60220442EA03622BBA42EA134314
:102AB0007B609DF80D309DF80C50BDF80E401B0456
:102AC00043EA056325BA43EA15451214BD609DF833
:102AD0001150091452439DF8104001FB01212D04AF
:102AE0001A1445EA046502FB02112A14BDF812000B
:102AF00002FB021100BA01F1714145EA1040B1F147
:102B0000007FF86072D8B9F80000102140F480709E
:102B1000A9F800005FEA4C6004D42AE000215FEAD3
:102B20004C6026D541F001021AF801001AF8022083
:102B300041F0030342EA002041F002021AF80220A9
:102B40001AF80330308043EA022041F0040241F0D9
:102B500005031AF802201AF80330708043EA0220B5
:102B6000B080B9F8000041F0060140F00800A9F873
:102B700000001CF4C07F18D03AF801000AEB0102F3
:102B800000BA5388000CABF8000018BA9288000C09
:102B9000ABF8020010BA000CABF80400B9F8000062
:102BA000063140F07000A9F800005FEA8C7016D082
:102BB0000AEB01056878EC78C10709D0D8F808203D
:102BC00032B104F00700411CC4F3C200904768789A
:102BD000000704D5D8F80C1009B1A0098847FDF703
:102BE000EDFF002009B0BDE8F08F00BF00F08CFEC3
:102BF0000020A9F800004FF0FF3009B0BDE8F08FC9
:102C000010B586B004464AF6BB70CDF6DF7005906D
:102C10004FF2AA10CDF6DF7004904FF2FE20CCF2F6
:102C2000AB40C82C039017D8E0B2C821B1FBF0F03C
:102C3000002101388DF804108DF8050001AA40F23A
:102C40001620022101F014FA30B903AA40F6C1207F
:102C50000C2101F00DFA18B14FF0FF3006B010BD95
:102C600040F26400C2F200000480002006B010BDF3
:102C7000B0B582B0054644F62331C0F60001C5F375
:102C8000C10300F00300CC5C0A5C8DF8054044F6FB
:102C900020348DF80420C5F38112C0F60004895C4D
:102CA000205C8DF806108DF80000E05CA15C8DF8CA
:102CB00001008DF8021001AA40F22640032101F024
:102CC000D7F950BB6A4640F22A40032101F0D0F9FF
:102CD00018BB45F23660C0F27600019044F22660DF
:102CE000C0F26600690700901CD4A80622D4E8054B
:102CF00005D577208DF8060067208DF8020001AA1F
:102D00004FF48860032101F0B3F930B96A4640F20C
:102D10003140032101F0ACF9B0B14FF0FF3002B007
:102D2000B0BD00BF37208DF8040027208DF80000CB
:102D3000A806DCD557208DF8050047208DF8010046
:102D4000E805D6D4DBE700BF40F26000C2F2000025
:102D50000580002002B0B0BDF0B583B00446B1F5E7
:102D6000C86F4FF0FF3057D814F0070254D0084610
:102D7000FDF797FB0021C4F24831FDF76AFA0546DA
:102D80000DF1070000F02CFA9DF80700811EC00726
:102D900040EA5102072A4FF0FF303DD80026C4F226
:102DA00040664FF08D41DFE802F01605370B3737EC
:102DB000371100BF0026C4F2C0564FF08C410AE024
:102DC0000026C4F240564FF08B4104E00026C4F2C6
:102DD000C0464FF08A412846FDF709FA07462846C3
:102DE0003146FDF704FAFDF761FB06463846FDF76C
:102DF0005DFB010A8DF808108DF80900300A02A960
:102E00008D1C8DF80A00E0078DF80B6006D1A00735
:102E100014D4600722D4002003B0F0BD02AA4FF4FE
:102E2000EA70022101F024F938BB4FF492700221BC
:102E30002A4601F01DF900BBE9E700BF02AA4FF4E2
:102E4000EC70022101F014F9B8B94FF4947002212A
:102E50002A4601F00DF980B9DBE700BF02AA4FF462
:102E6000EE70022101F004F938B94FF49670022196
:102E70002A4601F0FDF80028CDD04FF0FF3003B016
:102E8000F0BD000080B582B0019040F2BC00C2F2FB
:102E9000000001A901224FF6FF73FEF73FFE0198E3
:102EA00002B080BD90F9001000290DDD002190F9DD
:102EB0000320002A10DD002290F90630002B13DDDC
:102EC000002011430843704718D490F901100029DD
:102ED0001EDD0121EBE700BF12D490F90420002A87
:102EE0001EDD0822E8E700BF0CD490F90730002B64
:102EF0001EDD402011430843704700BF0421D6E780
:102F00002022D9E74FF4807011430843704700BF77
:102F100018D490F9021000291EDD0221C7E700BF76
:102F200012D490F90520002A1CDD1022C4E700BF4E
:102F30000CD490F9080000281ADD802011430843C2
:102F4000704700BF0521B2E72822B5E74FF4A07013
:102F500011430843704700BF4FF0060108BF072127
:102F6000A5E700BF4FF0300208BF3822A4E700BF3A
:102F70004FF4C07008BF4FF4E0701143084370472E
:102F800092B000240294CDE90044FEF761F90120DB
:102F9000CDE90D44CDE90B4408900C904FF4E010BE
:102FA0004FF480310225119008A8CDE90914CDE92C
:102FB0000F51FEF7EDFA28B1EFF3108072B600BFA3
:102FC000FEE700BF0F20CDE903054FF48060CDE997
:102FD000060403A802210594FEF7D0F920B1EFF30F
:102FE000108072B6FEE700BFFFF75AFBFFF77AFBCF
:102FF000FFF79AFB4FF4FA70FDF7C4FC3BA001F019
:10300000DDFCFFF7F9FA98B101463AA001F074F837
:103010003BA400BF4FF4FA70FDF7B4FCFFF7ECFAE5
:1030200005462046294601F067F8002DF2D102E05E
:1030300036A001F061F8002740F204140DF10808F1
:103040000DF1040AEB46C4F2C827C2F2000402E004
:103050000A20FDF797FC404651465A46FFF7E0F933
:103060000028F5D10298DDE900963946FDF7BFF852
:10307000FDF71CFA054630463946FDF7B8F8FDF76E
:1030800015FA064648463946FDF7B1F8FDF70EFA3F
:103090004FF6AA71C0F203712160290A6171310AE9
:1030A000E171010A61720021A17205EB15214D3910
:1030B0006A1831440A4401EB16210A440144207283
:1030C0000A4401EB102002EB40016531E07240F24E
:1030D000BC002173C2F2000021460D224FF6FF739F
:1030E0002571A671FEF71AFDB2E700BF7265616433
:1030F000790000006572726F72312025640A000049
:103100006572726F72322025640A00007375636302
:1031100065737300F0B585B040F22005C2F200057A
:1031200095F8241021B10024204605B0F0BD00BF61
:10313000A97A89B300F0FE0739402E7CCC1B287D8C
:1031400018BF4FF0FF34002F297408BF002829D082
:10315000687CD0B90120D5E900128DF812001378EF
:103160004A7C0DF11201CDE9001040F268004FF0E9
:10317000050C5900C2F200000123CDF808C0FDF78C
:1031800079FF10B99DF812006874002FCCD000F0C0
:10319000BBFB0028C8D02E744FF0FF34204605B08A
:1031A000F0BD00BF0020D5E900128DF813001078A3
:1031B0004A7C01210DF11303CDE90031410040F2B9
:1031C00068000527C2F2000001230297FDF752FFB5
:1031D0000028A9D19DF813006874204605B0F0BD01
:1031E00040F22001C2F200014A7A032A84BF4FF064
:1031F000FF30704740F20243D200C1F20803D340CF
:103200000370C97C29B140F60401C2F21001D1401B
:1032100001700020704700002DE9F04186B040F2B7
:103220002005C2F200058020D5E900128DF81000BB
:1032300010784A7D410040F268000524012704AE61
:10324000C2F200000123CDE900670294FDF712FFEE
:1032500030B14FF0FF34204606B0BDE8F08100BF2A
:103260006420FDF78FFB4FF00008D5E900018DF8D1
:1032700010800978427D40F268004900C2F20000E7
:103280000123CDE900670294FDF7F4FE00284FF01A
:10329000FF34E0D14FF6FF701821E881FF208DF850
:1032A0001610D5E900126882AC60C5E90588C5F83A
:1032B0001C80A5F82080C5F8238085F82780287415
:1032C000012013788A790DF11601287385F8220000
:1032D000CDE9001040F2680005275900C2F2000055
:1032E00001230297FDF7C6FE30B14FF0FF342046B0
:1032F00006B0BDE8F08100BF9DF81600A97AC008AD
:103300002872C1B1687A00218DF81710F0B1D5E9A3
:1033100000010DF117030978C2790120CDE90030D1
:1033200040F2680005274900C2F20000012302971D
:10333000FDF7A0FE30B14FF0FF34204606B0BDE8E7
:10334000F08100BF9DF81700C00868722A2000F0C5
:103350001FFD28B14FF0FF34204606B0BDE8F081D4
:10336000322000F06FFD28B14FF0FF34204606B048
:10337000BDE8F0810020FFF7CDFE28B14FF0FF340B
:10338000204606B0BDE8F081002000F0C5FB28B162
:103390004FF0FF34204606B0BDE8F0810020002445
:1033A00000F0D0FD204606B0BDE8F0812DE9F04FD9
:1033B0008DB0064600294FF0FF3000F0D18040F27A
:1033C0002008C2F200080C4698F82510002940F0A9
:1033D000C780002ECDE9033200F09E804FF0000937
:1033E0000DF12205CDE905461FFA89FBA6EB0B0A74
:1033F00098F80A00BAF1100FA8BF4FF0100A002881
:1034000000F0A380D8F804005FFA89F11FFA8AF36C
:1034100042895E1899FA89F196424FEA1141079361
:10342000ADF8321000F29180D8F800100078CA7E12
:103430000DF13201009102210191410040F268003A
:10344000C2F20000012305270297FDF713FE40F2A8
:103450002007C2F20007002877D1D7E9000104EB6A
:103460000B08027E07980978019040F26800490035
:10347000C2F2000001230524CDF800800294FDF77C
:10348000F9FD002861D1B87A00285ED078683B4603
:1034900042894FEA1B2196428DF832108DF8339005
:1034A00053D819680078CA7E0DF1320100910221CB
:1034B0000191410040F26800C2F20000012305279B
:1034C0000297FDF7D7FD40F22001C2F20001E0BBF8
:1034D000D1E90001079C0978027E40F268004900AA
:1034E000C2F2000001230527009501940297FDF721
:1034F0001DFC50BB404629462246FCF713FE98BBF4
:10350000D144069E1FFA89F0059C40F22008B04283
:10351000C2F20008FFF468AF0498D8E9001240BA7C
:10352000ADF8320010784A7F052102230DF13207F1
:103530000291410040F26800CDE90073C2F2000040
:1035400001230124FDF796FD20B14FF0FF300DB0AF
:10355000BDE8F08F039888F82540A8F826000020E1
:103560000DB0BDE8F08F00BF6FF001000DB0BDE8F9
:10357000F08F000070B586B0282805D94FF0FF34D1
:10358000204606B070BD00BF40F220050446C2F2DE
:103590000005002854D095F82300012828D0A87CE5
:1035A00095F822103222002808BF30228DF813200F
:1035B00039B16FF04D01002808BF6FF04F018DF851
:1035C0001310D5E900010DF113030978C27D052020
:1035D000029040F26800012600934900C2F2000008
:1035E00001230196FDF746FD002808BF85F82360FA
:1035F0002020012C8DF810006ED1A87A00218DF8C2
:103600001110D8B1E87A062106288DF8141015D0CB
:10361000D5E9000105AB097882780120CDE90030B9
:1036200040F2680005264900C2F20000012302961C
:10363000FDF720FD10B99DF81400E8720720C0E0E6
:1036400095F8230050B3A87C95F822100246002874
:1036500018BF012252008DF8122039B16FF07D01A0
:10366000002808BF6FF07F018DF81210D5E9000126
:103670000DF112030978C27D0120CDE9003040F23E
:10368000680005264900C2F2000001230296FDF7FA
:10369000F1FC002804BF002085F823004FF4E0600F
:1036A000D5E90012ADF8100010784A7D022104AB74
:1036B000CDE90031410040F268000526C2F2000069
:1036C00001230296FDF7D6FC002851D04FF0FF34BD
:1036D000204606B070BD00BF052C23D8A87A012172
:1036E0008DF81110E0B1E87A062106288DF8151042
:1036F00016D0D5E900010DF1150309788278012073
:10370000CDE9003040F2680005264900C2F2000011
:1037100001230296FDF7AEFC10B99DF81500E87282
:1037200047204EE0142C29D8A87A02218DF81110D8
:10373000D8B1E87A052405288DF8164015D0D5E9CA
:1037400000010DF11603097882780120CDE90030DF
:1037500040F268004900C2F2000001230294FDF724
:1037600089FC10B99DF81600E872872029E000BF97
:1037700000242C75204606B070BD00BFA87A032136
:103780008DF81110E0B1E87A042104288DF81710A3
:1037900016D0D5E900010DF11703097882780120D0
:1037A000CDE9003040F2680005264900C2F2000071
:1037B00001230296FDF75EFC10B99DF81700E87230
:1037C000C720D5E900128DF8110010784A7D052137
:1037D000022304AE0291410040F26800CDE900638B
:1037E000C2F2000001230126FDF744FC20B14FF096
:1037F000FF34204606B070BD0820A87200240020C7
:103800002C732E75FFF786FC204606B070BD0000B5
:103810002DE9F04385B040F22007C2F200070E46C2
:1038200097F82410054600294FF0FF3061D0B97A8F
:1038300000295ED0D7E9000191460978027B052076
:103840000223CDE9013040F268000DF11204490075
:10385000C2F2000001230094FDF768FA20B14FF096
:10386000FF3005B0BDE8F083BDF8121008BAB5EB23
:10387000104F07D9002089F800004FF0FF3005B045
:10388000BDE8F083786891FA91F84288B8EB520F5E
:1038900018D939680078CA7C0121CDE9004141007E
:1038A00040F268004FF0050CC2F200000123CDF891
:1038B00008C0FDF73BFA0028D1D19DF81200C006E0
:1038C0001AD47868396800784A7B05210291410052
:1038D00040F26800C2F20000012300960195FDF756
:1038E00025FA0028BBD1B8FBF5F0013889F80000B3
:1038F000002005B0BDE8F08300F006F86FF001008D
:1039000005B0BDE8F0830000F0B585B040F22004BA
:10391000C2F20004A07AB8B30020D4E900128DF8F6
:10392000130010784A7C410040F268000526012708
:103930000DF11305C2F200000123CDE900570296F4
:10394000FDF798FB00BBD4E9000101230978427917
:1039500040F268004900C2F20000CDE9017600950E
:10396000FDF788FB80B9D4E90001012309780279C9
:103970000520CDE9013040F268004900C2F20000A4
:103980000095FDF777FB18B14FF0FF3005B0F0BDA3
:1039900094F82400002857D00C20D4E900128DF8A8
:1039A000130010780A79410040F2680005260127CB
:1039B000C2F200000123CDE900570296FDF75AFB41
:1039C0000028E1D13220FCF7DDFFA07A0123C007F7
:1039D0006FF01F0008BF6FF03F00D4E900128DF8B0
:1039E000130010780A79410040F26800C2F200002A
:1039F000CDE901760095FDF73DFB0028C4D1607C40
:103A00000526002818BF01204000D4E900128DF8D7
:103A1000130010784A7C410040F268000127C2F28E
:103A200000000123CDE900570296FDF723FB002893
:103A3000AAD10020D4E900128DF8130010784A7939
:103A40004100CDE9005759E00420D4E900128DF877
:103A5000130010780A79410040F26800052601271A
:103A6000C2F200000123CDE900570296FDF702FBE8
:103A7000002889D1A07AA17CC0074FF0600008BF60
:103A80004020002918BF4020D4E900128DF813000F
:103A900010780A79410040F26800C2F20000012368
:103AA000CDE901760095FDF7E5FA00287FF46CAFCB
:103AB0003220FCF767FF607C0526002818BF012034
:103AC000D4E900128DF8130010784A7C410040F2CE
:103AD00068000127C2F200000123CDE900570296D9
:103AE000FDF7C8FA00287FF44FAFD4E90001097848
:103AF000427904F11000CDE90007490040F2680066
:103B0000C2F2000001230296FDF7B4FA00287FF408
:103B10003BAF002005B0F0BD70B584B040F2200589
:103B2000C2F20005A97C814202D1002004B070BD20
:103B30000446D5E900010123097802790520CDE981
:103B4000013040F268000DF10F064900C2F200009A
:103B50000096FDF7EBF8002C44D000285FD19DF8CB
:103B60000F00D5E9001200F0DF008DF80F0010788B
:103B70000A7905210123CDE90131410040F26800B5
:103B8000C2F200000096FDF775FA002847D1032025
:103B9000FCF7F8FE95F8221095F823206FF07D00D1
:103BA000002908BF02208DF80F001AB140F0300044
:103BB0008DF80F00D5E900014FF0050C0978C27DA2
:103BC0000120CDE9006040F268004900C2F2000027
:103BD0000123CDF808C0FDF74DFA00BBAC740020FE
:103BE00004B070BDD8B99DF80F00A97A00F0DF00CD
:103BF00001F0010140EA4110D5E900128DF80F00F3
:103C000010780A7905210123CDE90131410040F204
:103C10006800C2F200000096FDF72CFA20B14FF0C8
:103C2000FF3004B070BD00BF0320FCF7ABFE95F879
:103C3000220095F82310024600281CBF01226FF0D5
:103C40007F00D20100298DF80F20AFD1B2E700002C
:103C5000F0B585B040F22005C2F2000595F82410B9
:103C6000814200F08D80002854D095F8250000286E
:103C700000F08A8009B9A87AC8B10020D5E90012FD
:103C80008DF8110010784A7C01210DF11103CDE966
:103C90000031410040F268000526C2F20000012315
:103CA0000296FDF7E7F910B99DF81100687400203D
:103CB0000024FFF731FFE88C00F0C4F868688DF845
:103CC0001040007840F26804012704A9C2F2000401
:103CD0000526CDE900174100204623220123029644
:103CE000FDF7C8F90220D5E900128DF8120010780E
:103CF0004A7C0DF11201CDE9001741002046012355
:103D000085F824700296FDF7B5F9B8BB9DF812004E
:103D1000687433E009B9A87AC8B10020D5E9001267
:103D20008DF8130010784A7C01210DF11303CDE9C1
:103D30000031410040F268000527C2F20000012373
:103D40000297FDF797F910B99DF813006874287C65
:103D500069688DF810000878012104AACDE90021D6
:103D6000410040F268000527C2F20000232201232F
:103D70000297FDF77FF9002085F82400FFF7C4FDC6
:103D8000002005B0F0BD00BF4FF0FF3005B0F0BD22
:103D900010B584B040F22004C2F20004A17A0029D8
:103DA00045D0BC2806D30120E17A8DF80F0081426E
:103DB00027D144E0622807D30220E17A8DF80F0072
:103DC00081421ED13BE000BF2A2807D30320E17ABD
:103DD0008DF80F00814214D131E000BF142807D3C1
:103DE0000420E17A8DF80F0081420AD127E000BF5C
:103DF0000A2834BF06200520E17A8DF80F008142A1
:103E00001DD0D4E900010DF10F030978827801205B
:103E1000CDE9003040F268004FF0050C4900C2F2D5
:103E200000000123CDF808C0FDF724F920B14FF0C0
:103E3000FF3004B010BD00BF9DF80F00E0720020FD
:103E400004B010BD70B584B040F22005C2F2000588
:103E5000A97A044600294FF0FF3070D095F824105D
:103E600000296CD1287D50B1601E80B2272803D86C
:103E70002046FFF77FFB61E00020FFF77BFB4FF45C
:103E80007A76B4F57A7F28BF3446042C98BF042490
:103E9000B6FBF4F0D5E9001201388DF80E00107869
:103EA0004A7801210DF10E03CDE90031410040F2C5
:103EB00068000524C2F2000001230294FDF7DAF83D
:103EC00020B14FF0FF3004B070BD00BF9DF80E0070
:103ED000AA7A411CB6FBF1F1E9817AB3012801D835
:103EE00001200FE0042801D802200BE00A2801D8A5
:103EF000032007E0182801D8042003E031288CBFF4
:103F000006200520E97A8DF80F00814216D0D5E908
:103F100000010DF10F03097882780120CDE900300E
:103F200040F2680005264900C2F200000123029613
:103F3000FDF7A0F810B99DF80F00E872002004B05A
:103F400070BD00002DE9F04184B0044610F0700F00
:103F500002D0012004E000BF002C0CBF4020002054
:103F600040F22008C2F200088DF80E00D8E90001E6
:103F700005260978427D40F2680001270DF10E0503
:103F80004900C2F200000123CDE900570296FDF777
:103F900071F828BB0421A20621EA141104F01002D2
:103FA0009DF80E0058BF023187EA12121144220711
:103FB00058BF38318DF80E10D8E9001200F0BF005C
:103FC00013788A7D88F80C0040F268005900C2F22C
:103FD00000000123CDE900570296FDF74BF848B1E8
:103FE000002088F80A004FF0FF34204604B0BDE8F6
:103FF000F08100BF14F0F70F2ED098F8230058B3CB
:1040000098F8120098F822100246002818BF0122E2
:1040100052008DF80F2039B16FF07D01002808BFE4
:104020006FF07F018DF80F10D8E900010DF10F033B
:104030000978C27D0120CDE9003040F268000527F3
:104040004900C2F2000001230297FDF713F800288F
:1040500004BF002088F8230088F80A40002432209A
:1040600088F81440FCF78EFC204604B0BDE8F081CF
:10407000F0B585B00C4601464FF0FF30CAB340F2B0
:104080002006C2F200061546B27A92B370684ABAA8
:10409000C9B2438921449942ADF8122012D831683F
:1040A0000078CA7E02210DF11203CDE900314100F2
:1040B00040F268000527C2F2000001230297FCF7D6
:1040C000D9FF18B14FF0FF3005B0F0BDD6E90001BF
:1040D00001230978027E40F268004900C2F2000024
:1040E000CDE900540297FCF7C5FF002818BF4FF038
:1040F000FF3005B0F0BD00000FB4054B10B503A9AB
:10410000044A029800F09AF810BC5DF814FB000015
:10411000852E000800000020490050EAC12018BF89
:1041200004204A0D18BF40F0010040F2FF72B2EBCC
:10413000515F08BF40F00200012808BF052070470A
:104140002DE9F0414F1E00EBC7010446D1E9000103
:1041500015461E4637F006020DD02A463346FCF7B8
:10416000B6F87F1E04EBC703D3E90023FCF790FAEF
:1041700037F00602F1D1022F25D0042F13D0062FDD
:1041800018BFBDE8F0812A463346FCF7A0F8D4E911
:104190000A23FCF77DFA2A463346FCF798F8D4E95F
:1041A0000823FCF775FA2A463346FCF790F8D4E961
:1041B0000623FCF76DFA2A463346FCF788F8D4E963
:1041C0000423FCF765FA2A463346FCF780F8D4E965
:1041D0000223FCF75DFA2A463346FCF778F8D4E967
:1041E0000023BDE8F041FCF753BA0122FCF7F7BA0F
:1041F000FCF74EBA0022134610461146FCF7D9B818
:10420000024A00201107FCF7EABA000001FDFFFF97
:1042100002E008C8121F08C1002AFAD1704770478F
:10422000002001E001C1121F002AFBD170470000ED
:104230000149086070470000040000202DE9FF4F8D
:1042400089B09B460446002506E025280BD05A4637
:104250000B999047641C6D1C20780028F5D10DB097
:104260002846BDE8F08F0027B8460122474900E004
:10427000074314F8013F203B02FA03F00842F7D14C
:1042800020782E2819D114F8010F47F004072A28A6
:104290000ED06FF02F022078A0F1300109290CD840
:1042A00008EB880102EB410100EB0108641CF2E716
:1042B0000A98641C50F8048B0A9020780028CED00D
:1042C000642808D0692806D075281ED05A460B9954
:1042D00090476D1C58E00A994FF00A0901C90A91EC
:1042E000002802DA40422D2102E0390504D52B21B5
:1042F0008DF82010012103E0F90704D02021F7E711
:104300008A4608AE0DE00021FAE70A994FF00A0943
:1043100001C90A91F7E74946FCF710F9303106F870
:10432000011D0028F7D1ADEB060000F12009780748
:1043300001D44FF00108C84502DDA8EB090000E0F8
:1043400000208046002706E008A85A46C05D0B9969
:1043500090476D1C7F1C5745F6DB04E030205A4621
:104360000B9990476D1CB8F10001A8F10108F5DC2C
:1043700005E016F8010B5A460B9990476D1CB9F1F0
:104380000001A9F10109F4DC641C65E709280100BA
:104390002DE9F04D8D4F21F0004A86B005460C46C0
:1043A000BA452ADBAAEB070028430AD08848824591
:1043B00001DC1AD1CDB106B02846BDE8F04DFFF7BB
:1043C00014BF844A844B2846FBF781FF07460E46FC
:1043D000824A834B28462146FBF779FF06B03A46CE
:1043E0003346BDE8F04DFCF753B90120FFF720FF3D
:1043F00006B0BDE8F04DFFF7FDBE7A48824542DACF
:10440000BAF1795F0BDA2846FFF786FE042808BF69
:10441000FFF7F6FE284606B02146BDE8F08D2A4695
:104420000B461046FBF753FF834602466E480E4686
:104430000B4606217844FFF783FE5A463346FBF7C6
:1044400046FF804669488A465A46334604217844E6
:10445000FFF776FE5A463346FBF739FF00223B460C
:10446000FCF716F902460B4640465146FBF7A1FF02
:104470002A462346FBF72BFF06B02A462346BDE813
:10448000F04DFCF705B9284624F0004100223D46D6
:104490003B46FCF7A1F94FF0FF32FCF7A0F90646C6
:1044A000024653480F460B4606217844FFF748FE64
:1044B00032463B46FBF70BFFCDE900014D48324643
:1044C0003B4604217844FFF73BFE32463B46FBF770
:1044D000FEFE00222B46FCF7DBF8834602913046B5
:1044E000394600F07DFA804643480D46504517DCBA
:1044F000DDE900015A46029BFBF75BFF42462B4673
:10450000FBF7E5FE42462B46FCF7C2F80122FCF71A
:1045100066F9304A304BFCF75CF9304A304B4CE0DE
:104520004FF0000A52460B464046FCF7B1F8CDE981
:10453000031052462B4610461946FBF7C8FE32467A
:104540003B46FCF749F9DDE90332FBF732FF06464B
:104550000F46DDE900015A46029BFBF72AFF83461E
:104560000091012230463946FCF739F9194A1A4BB5
:10457000FCF732F906460F46012240462946FCF771
:104580002EF95A46009BFBF7A2FE32463B46FCF74B
:1045900020F906460F46012250462946FCF71FF92E
:1045A0000E4DDFF858802A464346FCF715F932468F
:1045B0003B46FCF711F92A464346FCF70DF9002C5F
:1045C000D8BF81F0004106B0BDE8F08D0000F03F9B
:1045D0000000F07F075C143326A6913C182D44544C
:1045E000FB21F93F0000E03FF80500000E06000047
:1045F00082050000980500003333EF3FFB21E93FBF
:104600002DE9F84F04460D4621F000400091734912
:10461000814211DC7249884201DC06D12CB120466E
:104620002946BDE8F84FFFF7E0BD6E48002DCCBF2E
:104630006D496E49BDE8F88F6D49814211DD6D49C4
:104640008142D8BF4FF0FF366DDD20462946FFF787
:1046500063FD042808BFFFF7D3FD20462946BDE8C7
:10466000F88F6549654F25F00045814233DD644987
:10467000814219DD002632464FF08043204629460C
:10468000FCF706F880468A46012220462946FCF7B8
:10469000A6F800223B46FCF79CF842465346FBF73F
:1046A00088FE04460D463EE001260022BA463B46FF
:1046B00020462946FBF7ECFF80460F460022534672
:1046C00020462946FCF785F842463B46FBF771FE3B
:1046D00004460D4627E04B4981421BDDDFF828A147
:1046E00002260022534620462946FBF7F0FD002211
:1046F0003B46FBF7CDFF80460F460022534620463F
:104700002946FCF766F842463B46FBF752FE044654
:104710000D4608E0032622462B4600203B49FBF7C6
:1047200048FE04460D4622462B4610461946FBF726
:10473000CEFD8B46824602460B46FBF7C8FD074678
:104740000246334888460B4606217844FFF7F8FCBA
:1047500052465B46FBF7BBFD82462E488B463A46E7
:10476000434605217844FFF7EBFC3A464346FBF706
:10477000AEFD02460B46002E504659460CDAFBF7BA
:1047800087FF22462B46FBF7A2FD01B022462B46AF
:10479000BDE8F04FFCF720B8FBF77AFF22462B4626
:1047A000FBF795FD1C4A7A4402EBC603D3E90023CC
:1047B000FCF70FF822462B46FCF70BF8174A7A4411
:1047C00002EBC603D3E90023FCF706F8009A002A9F
:1047D000B8BF81F00041BDE8F88F00000000104430
:1047E0000000F07F182D4454FB21F93FFB21F9BF55
:1047F0000000DC3F0000203E0000F33F0000F03FDF
:104800000000E63F008003400000F83F0000F0BFDA
:104810009A03000058030000F6020000BE020000E8
:104820002DE9F04D9446CCF1000423F000464CEA0B
:104830000404594F46EAD4749A46884621F000424F
:10484000BC4206D8454240EA050442EAD474BC4260
:1048500004D9BDE8F04D6246FFF7CABCAAF1405545
:10486000A5F17F6555EA0C040BD0022404EAAA7472
:104870004A4DDFF82CE144EAD87452EA000B04D028
:104880000CE0BDE8F04DFFF7BBBE002C14BF012CBF
:10489000BDE8F08D022C30D0032C32D056EA0C0B40
:1048A0000AD0BE4220D1BA4209D126F0804622F079
:1048B00080423346114617E000291ADB25E0DFF875
:1048C000E4B0FB44002C04BFDBE90001BDE8F08D3F
:1048D000012C02BFDBE9000181F00041BDE8F08D51
:1048E000022C0AD0032C0CD0BA4212D1B8F1000F1E
:1048F0000BDA2A482C49BDE8F08D28462B49BDE843
:10490000F08D28467146BDE8F08D24482849BDE861
:10491000F08D921B12153C2AC4BF204F244E10DC90
:10492000BAF1000FBEBF12F13C0F00273E4608DB74
:104930006246FBF73EFD21F00041FFF761FE0746AE
:104940000E4694B1012C08BF86F000460DD0194ADE
:10495000194B022C3846314615D0FBF73AFF2A4650
:10496000BDE8F04D114BFBF734BF0022134638462B
:104970003146FBF74BFF04BF0220FFF759FC3846D6
:104980003146BDE8F08DFBF724FF2A46BDE8F04D27
:10499000064BFBF721BF00000000F07F182D4454A8
:1049A000FB2109C052020000FB21F9BFFB21094095
:1049B000FB21F93F075C143326A6A13C10B5044641
:1049C00001E0FEF75FFA14F8010B04490028F8D162
:1049D000BDE810400A20FEF755BA00000000002094
:1049E0002DE9F04106460F46FBF771FF041E0D4608
:1049F00018BF0120284320F00040C0F17F6000F183
:104A0000E040C00F0ED0301C18BF0120384320F00A
:104A10000040C0F17F6000F1E040C00F04BF012002
:104A2000FFF706FC20462946BDE8F08100000000A3
:104A3000555555555555C53F7D6FEB0312D6D4BF1F
:104A40005544880E55C1C93F3B8F68B52882A4BF25
:104A500088B20175E0EF493F09F7FD0DE13D023FE6
:104A60004B2D8A1C273A03C0C88A599CE52A00406E
:104A700059018D1B6C06E6BF82922EB1C5B8B33FBB
:104A80004FBB610567ACDD3F182D4454FB21E93F66
:104A90009BF681D20B73EF3F182D4454FB21F93F55
:104AA000E2652F227F2B7A3C075C143326A6813CDB
:104AB000BDCBF07A8807703C075C143326A6913C86
:104AC000C4EB98999999C9BF711623FEC671BCBFF2
:104AD0006D9A74AFF2B0B3BF9AFDDE522DDEADBF5A
:104AE0002F6C6A2C44B4A2BF0D5555555555D53F72
:104AF000FF8300922449C23F6E204CC5CD45B73F8D
:104B0000513DD0A0660DB13FEB0D76244B7BA93F04
:104B100011DA22E33AAD903F0000000000000000EF
:104B20000CC92C4CCD6C00000000000000000102FC
:104B30000304060708090000000001020304010243
:104B400002030405060708090A0B0C0D0E0F1010CE
:104B500000007000000000240000000200030000BC
:104B600000650054FFEF0000FA80000B1282000184
:104B7000030C30C30E8C8CE914D5400213710F8ED8
:104B80003883F8833000F883258EF8833000F8836B
:104B9000FFFFFFFF0FFEA9D6240004001A8279A1AF
:104BA0000000003CFFFF00000010000038836FA2EF
:104BB000003E03304000000002CAE3093E800000CE
:104BC0002000000000000000400000006000000025
:104BD000000C0000000C186E000006920A16C0DFE0
:104BE000FFFF0256FD8CD377FFE1C496E0C5BEAA55
:104BF00000000000FFFF0B2B0000165700000359B8
:104C00004000000000001DFA00026C1D00000000C2
:104C10003FFFDFEB003EB3B6000D227800002F3CD3
:104C200000000000001942B5000039A20000B36581
:104C3000D90E9FC91DCF4C34300000005000000039
:104C40003BB67AE80064000000C8000000000000E5
:104C5000100000001000FA921000225E000D229F4A
:104C60000001000000320000FF46000063D4000095
:104C70001000000004D6000004CC000004CC0000AA
:104C80000000107200000040000000000000000062
:104C9000000600020005000700000000006400009C
:104CA0000000000000000005000500640020000076
:104CB00000000000000000000000400000000300B1
:104CC00000000032F8980000FF650000830F00002C
:104CD000FF9BFC000000000000000000000000003E
:104CE00000000000000000000000000000000000C4
:104CF00000000000000000000000000000001000A4
:104D000040000000000000060000B26A000200003F
:104D10000001FB830068000000D9FC007CF1FF83E8
:104D20000000000000650000006403E80064002843
:104D3000000000250000000016A000000000100088
:104D400000001000002F0000000001F4000010001F
:104D500000280000FFFF4581FFFFFA7200000000FD
:104D600000000000004400050005BAC6004778A214
:104D70000000000100000000000006000000001418
:104D80000000254D002F706D000005AE000C02D014
:104D90000000000000000000000000000000000013
:104DA000001B0000000000000000000000000000E8
:104DB0000064000000080000000000000000000087
:104DC00000000000000000000000000000000000E3
:104DD00000000000000000000000000000000000D3
:104DE00000000000000000000000000000000000C3
:104DF00000000000000000000000000000000000B3
:104E000000000000000000000000000000000000A2
:104E1000001B00000000000000000000000E000E5B
:104E200000000AC70004000000000032FFFFFF9CE2
:104E300000000B2B000000020000000100000064D5
:104E4000FFE500000000000000000000000000007E
:104E50000000000100000000000100000000000050
:104E6000000180000001800000018000002426D3A2
:104E70000000000000000000000600100096003C4A
:104E80000000000000000000000000000000000022
:104E90000C0A4E68CDCF770950166759C619CE82D5
:104EA0000000000000000000000000000000000002
:104EB000000000000000000017D78400030000007D
:104EC0000000000000000000C7938F9D1E1B1C19EE
:104ED00000000000000000000000000000000000D2
:104EE00000000000000000000203188500004000E0
:104EF00000000003000000030000000000000000AC
:104F00004000000000000000000000000000000061
:104F10000000000000000000000000000000000091
:104F20000000000000000000000000000000000081
:104F300000000000677DDF7E72902E554CF6E688FB
:104F40000000000000000000000000000000000061
:104F5000D8DCB4B8B0D8B9ABF3F8FAB3B7BB8E9E0F
:104F6000AEF132F51BF1B4B8B08097F1A9DFDFDF05
:104F7000AADFDFDFF2AAC5CDC7A90CC92C97F1A91A
:104F800089264666B28999A92D557DB0B08AA89622
:104F9000365676F1BAA3B4B280C0B8A89711B283DE
:104FA00098BAA3F0240844106418B2B9B49883F1F5
:104FB000A329557DBAB5B1A38393F0002850F5B26B
:104FC000B6AA839328547CF1B9A3829361BAA2DA7A
:104FD000DEDFDB819AB9AEF5606870F1DABAA2DF84
:104FE000D9BAA2FAB9A38292DB31BAA2D9BAA2F88D
:104FF000DF85A4D0C1BBAD83C2C5C7B8A2DFDFDFE8
:10500000BAA0DFDFDFD8D8F1B8AAB38DB4980D35D8
:105010005DB2B6BAAF8C96198F9FA70E161EB49AC2
:10502000B8AA872C547CBAA4B08AB691325676B20C
:105030008494A4C808CDD8B8B4B0F19982A82D55ED
:105040007D98A80E161EA22C547C92A4F02C5078A9
:10505000F184A898C4CDFCD80DDBA8FC2DF3D9BAF7
:10506000A6F8DABAA6DED8BAB2B68696A6D0F3C843
:1050700041DAA6C8F8D8B0B4B882A892F52C548802
:1050800098F135D9F418D8F1A2D0F8F9A884D9C785
:10509000DFF8F883C5DADF69DF83C1D8F40114F1E2
:1050A000A8824EA884F311D182F5D992289788F16D
:1050B00009F41C1CD884A8F3C0F9D1D99782F1292E
:1050C000F40DD8F3F9F9D1D982F4C203D8DEDF1A8E
:1050D000D8F1A2FAF9A88498D9C7DFF8F8F883C7FD
:1050E000DADF69DFF883C3D8F40114F198A8822EBF
:1050F000A884F311D182F5D992509788F109F41C54
:10510000D884A8F3C0F8F9D1D99782F149F40DD821
:10511000F3F9F9D1D982F4C403D8DEDFD8F1AD8830
:1051200098CCA809F9D98292A8F57CF1883ACF9455
:105130004A6E98DB6931DAADF2DEF9D88795A8F2CC
:1051400021D1DAA5F9F417D9F1AE8ED0C0C3AE8261
:10515000C684C3A88595C8A588F2C0F1F4010EF1F4
:105160008E9EA8C63E56F554F18872F40115F1984A
:1051700045856EF58E9E0488F142985A8E9E06886B
:1051800069F4011CF1981E1108D0F504F11E970274
:1051900002983625DBF9D985A5F3C1DA85A5F3DFB9
:1051A000D88595A8F309DAA5FAD88292A8F578F1FE
:1051B000881A849F26889821DAF41DF3D8879F39AE
:1051C000D1AFD9DFDFFBF9F40CF3D8FAD0F8DAF974
:1051D000F9D0DFD9F9D8F40BD8F3879F39D1AFD9FB
:1051E000DFDFF41DF3D8FAFCA869F9F9AFD0DADEF5
:1051F000FAD9F88F9FA8F1CCF398DB45D9AFDFD06F
:10520000F8D8F18F9FA8CAF38809DAAF8FCBF8D806
:10521000F2AD978D0CD9A5DFF9BAA6F3FAF412F224
:10522000D8950DD1D9BAA6F3FADAA5F2C1BAA6F388
:10523000DFD8F1BAB2B68696A6D0CAF349DAA6CBC1
:10524000F8D8B0B4B8D8AD84F2C0DFF18FCBC3A822
:10525000B2B68696C8C1CBC3F3B0B48898A821DB98
:10526000718D9D71859521D9ADF2FAD88597A828C1
:10527000D9F408D8F28D29DAF405D9F285A4C2F25E
:10528000D8A88D9401D1D9F411F2D88721D8F40A85
:10529000D8F28498A8C801D1D9F411D8F3A4C8BB16
:1052A000AFD0F2DEF8F8F8F8F8F8F8F8D8F1B8F678
:1052B000B5B9B08A95A3DE3CA3D9F8D85CA3D9F8D8
:1052C000D87CA3D9F8D8F8F9D1A5D9DFDAFAD8B1C2
:1052D0008530F7D9DED8F830ADDADED8F2B48C9963
:1052E000A32D557DA083DFDFDFB591A0F629D9FB83
:1052F000D8A0FC29D9FAD8A0D051D9F8D8FC51D9D6
:10530000F9D879D9FBD8A0D0FC79D9FAD8A1F9F984
:10531000F9F9F9A0DADFDFDFD8A1F8F8F8F8F8AC8E
:10532000DEF8ADDE8393AC2C547CF1A8DFDFDFF632
:105330009D2CDAA0DFD9FADB2DF8D8A850DAA0D05E
:10534000DED9D0F8F8F8DB55F8D8A878DAA0D0DFA5
:10535000D9D0FAF8F8F8F8DB7DF8D89CA88CF530AD
:10536000DB38D9D0DEDFA0D0DEDFD8A848DB58D9C3
:10537000DFD0DEA0DFD0DED8A868DB70D9DFDFA009
:10538000DFDFD8F1A888902C547C98A8D05C38D165
:10539000DAF2AE8CDFF9D8B087A8C1C1B188A8C64F
:1053A000F9F9DA36D8A8F9DA36D8A8F9DA36D8A869
:1053B000F9DA36D8A8F9DA36D8F78D9DADF818DACB
:1053C000F2AEDFD8F7ADFA30D9A4DEF9D8F2AEDE0E
:1053D000FAF983A7D9C3C5C7F1889BA77AADF7DED1
:1053E000DFA4F8849408A797F300AEF29819A48874
:1053F000C6A39488F632DFF28393DB09D9F2AADFE1
:10540000D8D8AEF8F9D1DAF3A4DEA7F1889B7AD820
:10541000F38494AE19F9DAAAF1DFD8A881C0C3C524
:10542000C7A39283F628ADDED9F8D8A350ADD9F83A
:10543000D8A378ADD9F8D8F8F9D1A1DADEC3C5C7B9
:10544000D8A18194F818F2B089ACC3C5C7F1D8B817
:10545000B4B09786A8319B069907AB9728889BF034
:105460000C201440B0B4B8F0A88A9A285078B79BA2
:10547000A8295179247059446938644831F1BBAB8B
:1054800088002C547CF0B38BB8A804285078F1B075
:1054900088B49726A85998BBABB38B02264666B052
:1054A000B8F08A9CA82951798B2951798A2470599E
:1054B0008B2058718A4469388B3940688A64483136
:1054C0008B30496088F1AC002C547CF08CA8042807
:1054D0005078F1889726A85998AC8C02264666F039
:1054E000899CA8295179247059446938644831A9A4
:1054F0008809205970AB11384069A8193148608C6F
:10550000A83C415C207C00F187981986A86E767EC5
:10551000A999882D557DD8B1B5B9A3DFDFDFAED00D
:10552000DFAAD0DEF2ABF8F9D9B087C4AAF1DFDF89
:10553000BBAFDFDFB9D8B1F1A3978E60DFB084F2E3
:10554000C8F8F9D9DED89385F14AB183A308B583A9
:105550009A0810B79F10D8F1B0BAAEB08AC2B2B6EE
:105560008E9EF1FBD9F41DD8F9D90CF1D8F8F8AD1D
:1055700061D9AEFBD8F40CF1D8F8F8AD19D9AEFB6F
:10558000DFD8F416F1D8F8AD8D61D9F4F4ACF59C00
:105590009C8DDF2BBAB6AEFAF8F40BD8F1AED0F88A
:1055A000AD51DAAEFAF8F1D8B9B1B6A3839C08B917
:1055B000B1839AB5AAC0FD3083B79F10B58B93F223
:1055C0000202D1ABDADED8F1B080BAABC0C3B2848C
:1055D000C1C3D8B1B9F38BA391B609B4D9ABDEB0CE
:1055E000879CB9A3DDF1B38B8B8B8B8BB087A3A387
:1055F000A3A3B28BB69BF2A3A3A3A3A3A3A3A3A32A
:10560000A3F1B087B59AA3F39BA3A3DCBAACDFB92F
:10561000A3A3A3A3A3A3A3A3A3A3A3A3A3A3A3A35A
:10562000D8D8D8BBB3B7F1AAF9DAFFD9809AAA289B
:10563000B48098A720B79787A86688F07951F19031
:105640002C870CA781976293F07171608594012972
:10565000517990A5F1284C6C870C95188578A38317
:1056600090284C6C886CD8F3A28200F210A8921992
:1056700080A2F2D926D8F188A84DD948D896A83961
:1056800080D93CD89580A839A68698D92CDA87A7E6
:105690002CD8A8899519A980D938D8A88939A98082
:1056A000DA3CD8A82EA83990D90CD8A8953198D929
:1056B0000CD8A809D9FFD801DAFFD89539A9DA267C
:1056C000FFD890A80D8999A810809821DA2ED88942
:1056D00099A83180DA2ED8A886963180DA2ED8A8FB
:1056E000873180DA2ED8A88292F34180F1D92ED862
:1056F000A882F31980F1D92ED882ACF3C0A28022FF
:10570000F1A62EA72EA92298A829DAACDEFFD8A2EE
:10571000F22AF1A92E8292A8F23180A696F1D90040
:10572000AC8C9C0C30ACDED0DEFFD88C9CACD010A6
:10573000ACDE8092A2F24C82A8F1CAF235F19688D2
:10574000A6D900D8F1FF6800000476005401F7FDE7
:10575000000175191A0C6A231B1C00001F207274AB
:10576000433B4138393A006B6C376F06246D6E70DD
:10577000830000000008000000010018320005004E
:10578000000020410000D242295C0F3E9A99993EC8
:105790003333733F0000003FB8570008000000207B
:1057A0005000000010420008085800085000002077
:1057B000D0040000204200080000000000000000AB
:1057C00001000000100000000024F40001000000AF
:1057D0000100000001000000525700084657000871
:1057E00000000000000000000000000000000000B9
:1057F00000000000000000000000000000000000A9
:085800007057000800000000D1
:04000005080000ED02
:00000001FF
